{
	"data": {
		"bytecode": {
			"linkReferences": {},
			"object": "60806040526101185f806101000a81548161ffff021916908361ffff160217905550348015602b575f80fd5b50335f60026101000a81548173ffffffffffffffffffffffffffffffffffffffff021916908373ffffffffffffffffffffffffffffffffffffffff1602179055506118ae806100795f395ff3fe608060405234801561000f575f80fd5b5060043610610091575f3560e01c80635ed4024d116100645780635ed4024d1461014557806363378216146101615780637c9cd2bc1461017d5780638da5cb5b14610199578063ddbe7afc146101b757610091565b806305a1b4a914610095578063112f54e3146100c957806312e7ee1c146100f95780633d9b569f14610129575b5f80fd5b6100af60048036038101906100aa9190610d37565b6101e7565b6040516100c0959493929190610e03565b60405180910390f35b6100e360048036038101906100de9190610d37565b6102d8565b6040516100f09190610e5b565b60405180910390f35b610113600480360381019061010e9190610e7b565b6103c7565b604051610120919061103a565b60405180910390f35b610143600480360381019061013e9190610d37565b610562565b005b61015f600480360381019061015a9190611091565b6107b3565b005b61017b60048036038101906101769190610d37565b610860565b005b610197600480360381019061019291906111e8565b6109e2565b005b6101a1610bdb565b6040516101ae919061122f565b60405180910390f35b6101d160048036038101906101cc9190610d37565b610c00565b6040516101de9190611248565b60405180910390f35b6001602052815f5260405f208181548110610200575f80fd5b905f5260205f2090600502015f9150915050805f015490806001015f9054906101000a900473ffffffffffffffffffffffffffffffffffffffff169080600201805461024b9061128e565b80601f01602080910402602001604051908101604052809291908181526020018280546102779061128e565b80156102c25780601f10610299576101008083540402835291602001916102c2565b820191905f5260205f20905b8154815290600101906020018083116102a557829003601f168201915b5050505050908060030154908060040154905085565b606060015f8473ffffffffffffffffffffffffffffffffffffffff1673ffffffffffffffffffffffffffffffffffffffff1681526020019081526020015f208281548110610329576103286112be565b5b905f5260205f20906005020160020180546103439061128e565b80601f016020809104026020016040519081016040528092919081815260200182805461036f9061128e565b80156103ba5780601f10610391576101008083540402835291602001916103ba565b820191905f5260205f20905b81548152906001019060200180831161039d57829003601f168201915b5050505050905092915050565b606060015f8373ffffffffffffffffffffffffffffffffffffffff1673ffffffffffffffffffffffffffffffffffffffff1681526020019081526020015f20805480602002602001604051908101604052809291908181526020015f905b82821015610557578382905f5260205f2090600502016040518060a00160405290815f8201548152602001600182015f9054906101000a900473ffffffffffffffffffffffffffffffffffffffff1673ffffffffffffffffffffffffffffffffffffffff1673ffffffffffffffffffffffffffffffffffffffff1681526020016002820180546104b49061128e565b80601f01602080910402602001604051908101604052809291908181526020018280546104e09061128e565b801561052b5780601f106105025761010080835404028352916020019161052b565b820191905f5260205f20905b81548152906001019060200180831161050e57829003601f168201915b505050505081526020016003820154815260200160048201548152505081526020019060010190610425565b505050509050919050565b8060015f8473ffffffffffffffffffffffffffffffffffffffff1673ffffffffffffffffffffffffffffffffffffffff1681526020019081526020015f2082815481106105b2576105b16112be565b5b905f5260205f2090600502015f015414610601576040517f08c379a00000000000000000000000000000000000000000000000000000000081526004016105f890611335565b60405180910390fd5b5f60015f8473ffffffffffffffffffffffffffffffffffffffff1673ffffffffffffffffffffffffffffffffffffffff1681526020019081526020015f208281548110610651576106506112be565b5b905f5260205f20906005020160040154116106a1576040517f08c379a00000000000000000000000000000000000000000000000000000000081526004016106989061139d565b60405180910390fd5b60015f8373ffffffffffffffffffffffffffffffffffffffff1673ffffffffffffffffffffffffffffffffffffffff1681526020019081526020015f2081815481106106f0576106ef6112be565b5b905f5260205f2090600502016004015f81548092919061070f906113e8565b91905055507f38794fae74aac17d1246d8d426a36b9d3b2e5b68ce41ee28977000b2ffc6596a33838360015f8773ffffffffffffffffffffffffffffffffffffffff1673ffffffffffffffffffffffffffffffffffffffff1681526020019081526020015f208581548110610787576107866112be565b5b905f5260205f209060050201600401546040516107a7949392919061140f565b60405180910390a15050565b5f60029054906101000a900473ffffffffffffffffffffffffffffffffffffffff1673ffffffffffffffffffffffffffffffffffffffff163373ffffffffffffffffffffffffffffffffffffffff1614610842576040517f08c379a00000000000000000000000000000000000000000000000000000000081526004016108399061149c565b60405180910390fd5b805f806101000a81548161ffff021916908361ffff16021790555050565b8060015f8473ffffffffffffffffffffffffffffffffffffffff1673ffffffffffffffffffffffffffffffffffffffff1681526020019081526020015f2082815481106108b0576108af6112be565b5b905f5260205f2090600502015f0154146108ff576040517f08c379a00000000000000000000000000000000000000000000000000000000081526004016108f690611335565b60405180910390fd5b5f60015f8473ffffffffffffffffffffffffffffffffffffffff1673ffffffffffffffffffffffffffffffffffffffff1681526020019081526020015f20828154811061094f5761094e6112be565b5b905f5260205f2090600502019050806004015f815480929190610971906114ba565b91905055507f6bb58c4cda72b63b915f36a412d451961564fc80dd8ab6187d7c463f673e0bdb33826001015f9054906101000a900473ffffffffffffffffffffffffffffffffffffffff16835f015484600401546040516109d5949392919061140f565b60405180910390a1505050565b5f8054906101000a900461ffff1661ffff1681511115610a37576040517f08c379a0000000000000000000000000000000000000000000000000000000008152600401610a2e90611571565b60405180910390fd5b5f60015f3373ffffffffffffffffffffffffffffffffffffffff1673ffffffffffffffffffffffffffffffffffffffff1681526020019081526020015f208054905090505f6040518060a001604052808381526020013373ffffffffffffffffffffffffffffffffffffffff1681526020018481526020014281526020015f815250905060015f3373ffffffffffffffffffffffffffffffffffffffff1673ffffffffffffffffffffffffffffffffffffffff1681526020019081526020015f2081908060018154018082558091505060019003905f5260205f2090600502015f909190919091505f820151815f01556020820151816001015f6101000a81548173ffffffffffffffffffffffffffffffffffffffff021916908373ffffffffffffffffffffffffffffffffffffffff1602179055506040820151816002019081610b82919061172c565b50606082015181600301556080820151816004015550507f2ae0c5663f567a278f6ec3216ccd21d319b445e1cae20a27121cd5de83aea27c33838542604051610bce94939291906117fb565b60405180910390a1505050565b5f60029054906101000a900473ffffffffffffffffffffffffffffffffffffffff1681565b5f805f90505f60015f8673ffffffffffffffffffffffffffffffffffffffff1673ffffffffffffffffffffffffffffffffffffffff1681526020019081526020015f208481548110610c5557610c546112be565b5b905f5260205f20906005020190505f5b8160040154811015610c8d57600183610c7e9190611845565b92508080600101915050610c65565b50819250505092915050565b5f604051905090565b5f80fd5b5f80fd5b5f73ffffffffffffffffffffffffffffffffffffffff82169050919050565b5f610cd382610caa565b9050919050565b610ce381610cc9565b8114610ced575f80fd5b50565b5f81359050610cfe81610cda565b92915050565b5f819050919050565b610d1681610d04565b8114610d20575f80fd5b50565b5f81359050610d3181610d0d565b92915050565b5f8060408385031215610d4d57610d4c610ca2565b5b5f610d5a85828601610cf0565b9250506020610d6b85828601610d23565b9150509250929050565b610d7e81610d04565b82525050565b610d8d81610cc9565b82525050565b5f81519050919050565b5f82825260208201905092915050565b8281835e5f83830152505050565b5f601f19601f8301169050919050565b5f610dd582610d93565b610ddf8185610d9d565b9350610def818560208601610dad565b610df881610dbb565b840191505092915050565b5f60a082019050610e165f830188610d75565b610e236020830187610d84565b8181036040830152610e358186610dcb565b9050610e446060830185610d75565b610e516080830184610d75565b9695505050505050565b5f6020820190508181035f830152610e738184610dcb565b905092915050565b5f60208284031215610e9057610e8f610ca2565b5b5f610e9d84828501610cf0565b91505092915050565b5f81519050919050565b5f82825260208201905092915050565b5f819050602082019050919050565b610ed881610d04565b82525050565b610ee781610cc9565b82525050565b5f82825260208201905092915050565b5f610f0782610d93565b610f118185610eed565b9350610f21818560208601610dad565b610f2a81610dbb565b840191505092915050565b5f60a083015f830151610f4a5f860182610ecf565b506020830151610f5d6020860182610ede565b5060408301518482036040860152610f758282610efd565b9150506060830151610f8a6060860182610ecf565b506080830151610f9d6080860182610ecf565b508091505092915050565b5f610fb38383610f35565b905092915050565b5f602082019050919050565b5f610fd182610ea6565b610fdb8185610eb0565b935083602082028501610fed85610ec0565b805f5b8581101561102857848403895281516110098582610fa8565b945061101483610fbb565b925060208a01995050600181019050610ff0565b50829750879550505050505092915050565b5f6020820190508181035f8301526110528184610fc7565b905092915050565b5f61ffff82169050919050565b6110708161105a565b811461107a575f80fd5b50565b5f8135905061108b81611067565b92915050565b5f602082840312156110a6576110a5610ca2565b5b5f6110b38482850161107d565b91505092915050565b5f80fd5b5f80fd5b7f4e487b71000000000000000000000000000000000000000000000000000000005f52604160045260245ffd5b6110fa82610dbb565b810181811067ffffffffffffffff82111715611119576111186110c4565b5b80604052505050565b5f61112b610c99565b905061113782826110f1565b919050565b5f67ffffffffffffffff821115611156576111556110c4565b5b61115f82610dbb565b9050602081019050919050565b828183375f83830152505050565b5f61118c6111878461113c565b611122565b9050828152602081018484840111156111a8576111a76110c0565b5b6111b384828561116c565b509392505050565b5f82601f8301126111cf576111ce6110bc565b5b81356111df84826020860161117a565b91505092915050565b5f602082840312156111fd576111fc610ca2565b5b5f82013567ffffffffffffffff81111561121a57611219610ca6565b5b611226848285016111bb565b91505092915050565b5f6020820190506112425f830184610d84565b92915050565b5f60208201905061125b5f830184610d75565b92915050565b7f4e487b71000000000000000000000000000000000000000000000000000000005f52602260045260245ffd5b5f60028204905060018216806112a557607f821691505b6020821081036112b8576112b7611261565b5b50919050565b7f4e487b71000000000000000000000000000000000000000000000000000000005f52603260045260245ffd5b7f545745455420444f4553204e4f542045584953540000000000000000000000005f82015250565b5f61131f601483610d9d565b915061132a826112eb565b602082019050919050565b5f6020820190508181035f83015261134c81611313565b9050919050565b7f547765657420686173206e6f206c696b650000000000000000000000000000005f82015250565b5f611387601183610d9d565b915061139282611353565b602082019050919050565b5f6020820190508181035f8301526113b48161137b565b9050919050565b7f4e487b71000000000000000000000000000000000000000000000000000000005f52601160045260245ffd5b5f6113f282610d04565b91505f8203611404576114036113bb565b5b600182039050919050565b5f6080820190506114225f830187610d84565b61142f6020830186610d84565b61143c6040830185610d75565b6114496060830184610d75565b95945050505050565b7f596f75277265206e6f7420746865206f776e65720000000000000000000000005f82015250565b5f611486601483610d9d565b915061149182611452565b602082019050919050565b5f6020820190508181035f8301526114b38161147a565b9050919050565b5f6114c482610d04565b91507fffffffffffffffffffffffffffffffffffffffffffffffffffffffffffffffff82036114f6576114f56113bb565b5b600182019050919050565b7f54776565742063616e6e6f74206265206c6f6e676572207468616e20245457455f8201527f45545f4d41585f4c454e47544800000000000000000000000000000000000000602082015250565b5f61155b602d83610d9d565b915061156682611501565b604082019050919050565b5f6020820190508181035f8301526115888161154f565b9050919050565b5f819050815f5260205f209050919050565b5f6020601f8301049050919050565b5f82821b905092915050565b5f600883026115eb7fffffffffffffffffffffffffffffffffffffffffffffffffffffffffffffffff826115b0565b6115f586836115b0565b95508019841693508086168417925050509392505050565b5f819050919050565b5f61163061162b61162684610d04565b61160d565b610d04565b9050919050565b5f819050919050565b61164983611616565b61165d61165582611637565b8484546115bc565b825550505050565b5f90565b611671611665565b61167c818484611640565b505050565b5b8181101561169f576116945f82611669565b600181019050611682565b5050565b601f8211156116e4576116b58161158f565b6116be846115a1565b810160208510156116cd578190505b6116e16116d9856115a1565b830182611681565b50505b505050565b5f82821c905092915050565b5f6117045f19846008026116e9565b1980831691505092915050565b5f61171c83836116f5565b9150826002028217905092915050565b61173582610d93565b67ffffffffffffffff81111561174e5761174d6110c4565b5b611758825461128e565b6117638282856116a3565b5f60209050601f831160018114611794575f8415611782578287015190505b61178c8582611711565b8655506117f3565b601f1984166117a28661158f565b5f5b828110156117c9578489015182556001820191506020850194506020810190506117a4565b868310156117e657848901516117e2601f8916826116f5565b8355505b6001600288020188555050505b505050505050565b5f60808201905061180e5f830187610d84565b61181b6020830186610d75565b818103604083015261182d8185610dcb565b905061183c6060830184610d75565b95945050505050565b5f61184f82610d04565b915061185a83610d04565b9250828201905080821115611872576118716113bb565b5b9291505056fea26469706673582212209db97ac23b82891095aad838f41b2094d731d477f51554b32b7fa00997548c4164736f6c634300081a0033",
			"opcodes": "PUSH1 0x80 PUSH1 0x40 MSTORE PUSH2 0x118 PUSH0 DUP1 PUSH2 0x100 EXP DUP2 SLOAD DUP2 PUSH2 0xFFFF MUL NOT AND SWAP1 DUP4 PUSH2 0xFFFF AND MUL OR SWAP1 SSTORE POP CALLVALUE DUP1 ISZERO PUSH1 0x2B JUMPI PUSH0 DUP1 REVERT JUMPDEST POP CALLER PUSH0 PUSH1 0x2 PUSH2 0x100 EXP DUP2 SLOAD DUP2 PUSH20 0xFFFFFFFFFFFFFFFFFFFFFFFFFFFFFFFFFFFFFFFF MUL NOT AND SWAP1 DUP4 PUSH20 0xFFFFFFFFFFFFFFFFFFFFFFFFFFFFFFFFFFFFFFFF AND MUL OR SWAP1 SSTORE POP PUSH2 0x18AE DUP1 PUSH2 0x79 PUSH0 CODECOPY PUSH0 RETURN INVALID PUSH1 0x80 PUSH1 0x40 MSTORE CALLVALUE DUP1 ISZERO PUSH2 0xF JUMPI PUSH0 DUP1 REVERT JUMPDEST POP PUSH1 0x4 CALLDATASIZE LT PUSH2 0x91 JUMPI PUSH0 CALLDATALOAD PUSH1 0xE0 SHR DUP1 PUSH4 0x5ED4024D GT PUSH2 0x64 JUMPI DUP1 PUSH4 0x5ED4024D EQ PUSH2 0x145 JUMPI DUP1 PUSH4 0x63378216 EQ PUSH2 0x161 JUMPI DUP1 PUSH4 0x7C9CD2BC EQ PUSH2 0x17D JUMPI DUP1 PUSH4 0x8DA5CB5B EQ PUSH2 0x199 JUMPI DUP1 PUSH4 0xDDBE7AFC EQ PUSH2 0x1B7 JUMPI PUSH2 0x91 JUMP JUMPDEST DUP1 PUSH4 0x5A1B4A9 EQ PUSH2 0x95 JUMPI DUP1 PUSH4 0x112F54E3 EQ PUSH2 0xC9 JUMPI DUP1 PUSH4 0x12E7EE1C EQ PUSH2 0xF9 JUMPI DUP1 PUSH4 0x3D9B569F EQ PUSH2 0x129 JUMPI JUMPDEST PUSH0 DUP1 REVERT JUMPDEST PUSH2 0xAF PUSH1 0x4 DUP1 CALLDATASIZE SUB DUP2 ADD SWAP1 PUSH2 0xAA SWAP2 SWAP1 PUSH2 0xD37 JUMP JUMPDEST PUSH2 0x1E7 JUMP JUMPDEST PUSH1 0x40 MLOAD PUSH2 0xC0 SWAP6 SWAP5 SWAP4 SWAP3 SWAP2 SWAP1 PUSH2 0xE03 JUMP JUMPDEST PUSH1 0x40 MLOAD DUP1 SWAP2 SUB SWAP1 RETURN JUMPDEST PUSH2 0xE3 PUSH1 0x4 DUP1 CALLDATASIZE SUB DUP2 ADD SWAP1 PUSH2 0xDE SWAP2 SWAP1 PUSH2 0xD37 JUMP JUMPDEST PUSH2 0x2D8 JUMP JUMPDEST PUSH1 0x40 MLOAD PUSH2 0xF0 SWAP2 SWAP1 PUSH2 0xE5B JUMP JUMPDEST PUSH1 0x40 MLOAD DUP1 SWAP2 SUB SWAP1 RETURN JUMPDEST PUSH2 0x113 PUSH1 0x4 DUP1 CALLDATASIZE SUB DUP2 ADD SWAP1 PUSH2 0x10E SWAP2 SWAP1 PUSH2 0xE7B JUMP JUMPDEST PUSH2 0x3C7 JUMP JUMPDEST PUSH1 0x40 MLOAD PUSH2 0x120 SWAP2 SWAP1 PUSH2 0x103A JUMP JUMPDEST PUSH1 0x40 MLOAD DUP1 SWAP2 SUB SWAP1 RETURN JUMPDEST PUSH2 0x143 PUSH1 0x4 DUP1 CALLDATASIZE SUB DUP2 ADD SWAP1 PUSH2 0x13E SWAP2 SWAP1 PUSH2 0xD37 JUMP JUMPDEST PUSH2 0x562 JUMP JUMPDEST STOP JUMPDEST PUSH2 0x15F PUSH1 0x4 DUP1 CALLDATASIZE SUB DUP2 ADD SWAP1 PUSH2 0x15A SWAP2 SWAP1 PUSH2 0x1091 JUMP JUMPDEST PUSH2 0x7B3 JUMP JUMPDEST STOP JUMPDEST PUSH2 0x17B PUSH1 0x4 DUP1 CALLDATASIZE SUB DUP2 ADD SWAP1 PUSH2 0x176 SWAP2 SWAP1 PUSH2 0xD37 JUMP JUMPDEST PUSH2 0x860 JUMP JUMPDEST STOP JUMPDEST PUSH2 0x197 PUSH1 0x4 DUP1 CALLDATASIZE SUB DUP2 ADD SWAP1 PUSH2 0x192 SWAP2 SWAP1 PUSH2 0x11E8 JUMP JUMPDEST PUSH2 0x9E2 JUMP JUMPDEST STOP JUMPDEST PUSH2 0x1A1 PUSH2 0xBDB JUMP JUMPDEST PUSH1 0x40 MLOAD PUSH2 0x1AE SWAP2 SWAP1 PUSH2 0x122F JUMP JUMPDEST PUSH1 0x40 MLOAD DUP1 SWAP2 SUB SWAP1 RETURN JUMPDEST PUSH2 0x1D1 PUSH1 0x4 DUP1 CALLDATASIZE SUB DUP2 ADD SWAP1 PUSH2 0x1CC SWAP2 SWAP1 PUSH2 0xD37 JUMP JUMPDEST PUSH2 0xC00 JUMP JUMPDEST PUSH1 0x40 MLOAD PUSH2 0x1DE SWAP2 SWAP1 PUSH2 0x1248 JUMP JUMPDEST PUSH1 0x40 MLOAD DUP1 SWAP2 SUB SWAP1 RETURN JUMPDEST PUSH1 0x1 PUSH1 0x20 MSTORE DUP2 PUSH0 MSTORE PUSH1 0x40 PUSH0 KECCAK256 DUP2 DUP2 SLOAD DUP2 LT PUSH2 0x200 JUMPI PUSH0 DUP1 REVERT JUMPDEST SWAP1 PUSH0 MSTORE PUSH1 0x20 PUSH0 KECCAK256 SWAP1 PUSH1 0x5 MUL ADD PUSH0 SWAP2 POP SWAP2 POP POP DUP1 PUSH0 ADD SLOAD SWAP1 DUP1 PUSH1 0x1 ADD PUSH0 SWAP1 SLOAD SWAP1 PUSH2 0x100 EXP SWAP1 DIV PUSH20 0xFFFFFFFFFFFFFFFFFFFFFFFFFFFFFFFFFFFFFFFF AND SWAP1 DUP1 PUSH1 0x2 ADD DUP1 SLOAD PUSH2 0x24B SWAP1 PUSH2 0x128E JUMP JUMPDEST DUP1 PUSH1 0x1F ADD PUSH1 0x20 DUP1 SWAP2 DIV MUL PUSH1 0x20 ADD PUSH1 0x40 MLOAD SWAP1 DUP2 ADD PUSH1 0x40 MSTORE DUP1 SWAP3 SWAP2 SWAP1 DUP2 DUP2 MSTORE PUSH1 0x20 ADD DUP3 DUP1 SLOAD PUSH2 0x277 SWAP1 PUSH2 0x128E JUMP JUMPDEST DUP1 ISZERO PUSH2 0x2C2 JUMPI DUP1 PUSH1 0x1F LT PUSH2 0x299 JUMPI PUSH2 0x100 DUP1 DUP4 SLOAD DIV MUL DUP4 MSTORE SWAP2 PUSH1 0x20 ADD SWAP2 PUSH2 0x2C2 JUMP JUMPDEST DUP3 ADD SWAP2 SWAP1 PUSH0 MSTORE PUSH1 0x20 PUSH0 KECCAK256 SWAP1 JUMPDEST DUP2 SLOAD DUP2 MSTORE SWAP1 PUSH1 0x1 ADD SWAP1 PUSH1 0x20 ADD DUP1 DUP4 GT PUSH2 0x2A5 JUMPI DUP3 SWAP1 SUB PUSH1 0x1F AND DUP3 ADD SWAP2 JUMPDEST POP POP POP POP POP SWAP1 DUP1 PUSH1 0x3 ADD SLOAD SWAP1 DUP1 PUSH1 0x4 ADD SLOAD SWAP1 POP DUP6 JUMP JUMPDEST PUSH1 0x60 PUSH1 0x1 PUSH0 DUP5 PUSH20 0xFFFFFFFFFFFFFFFFFFFFFFFFFFFFFFFFFFFFFFFF AND PUSH20 0xFFFFFFFFFFFFFFFFFFFFFFFFFFFFFFFFFFFFFFFF AND DUP2 MSTORE PUSH1 0x20 ADD SWAP1 DUP2 MSTORE PUSH1 0x20 ADD PUSH0 KECCAK256 DUP3 DUP2 SLOAD DUP2 LT PUSH2 0x329 JUMPI PUSH2 0x328 PUSH2 0x12BE JUMP JUMPDEST JUMPDEST SWAP1 PUSH0 MSTORE PUSH1 0x20 PUSH0 KECCAK256 SWAP1 PUSH1 0x5 MUL ADD PUSH1 0x2 ADD DUP1 SLOAD PUSH2 0x343 SWAP1 PUSH2 0x128E JUMP JUMPDEST DUP1 PUSH1 0x1F ADD PUSH1 0x20 DUP1 SWAP2 DIV MUL PUSH1 0x20 ADD PUSH1 0x40 MLOAD SWAP1 DUP2 ADD PUSH1 0x40 MSTORE DUP1 SWAP3 SWAP2 SWAP1 DUP2 DUP2 MSTORE PUSH1 0x20 ADD DUP3 DUP1 SLOAD PUSH2 0x36F SWAP1 PUSH2 0x128E JUMP JUMPDEST DUP1 ISZERO PUSH2 0x3BA JUMPI DUP1 PUSH1 0x1F LT PUSH2 0x391 JUMPI PUSH2 0x100 DUP1 DUP4 SLOAD DIV MUL DUP4 MSTORE SWAP2 PUSH1 0x20 ADD SWAP2 PUSH2 0x3BA JUMP JUMPDEST DUP3 ADD SWAP2 SWAP1 PUSH0 MSTORE PUSH1 0x20 PUSH0 KECCAK256 SWAP1 JUMPDEST DUP2 SLOAD DUP2 MSTORE SWAP1 PUSH1 0x1 ADD SWAP1 PUSH1 0x20 ADD DUP1 DUP4 GT PUSH2 0x39D JUMPI DUP3 SWAP1 SUB PUSH1 0x1F AND DUP3 ADD SWAP2 JUMPDEST POP POP POP POP POP SWAP1 POP SWAP3 SWAP2 POP POP JUMP JUMPDEST PUSH1 0x60 PUSH1 0x1 PUSH0 DUP4 PUSH20 0xFFFFFFFFFFFFFFFFFFFFFFFFFFFFFFFFFFFFFFFF AND PUSH20 0xFFFFFFFFFFFFFFFFFFFFFFFFFFFFFFFFFFFFFFFF AND DUP2 MSTORE PUSH1 0x20 ADD SWAP1 DUP2 MSTORE PUSH1 0x20 ADD PUSH0 KECCAK256 DUP1 SLOAD DUP1 PUSH1 0x20 MUL PUSH1 0x20 ADD PUSH1 0x40 MLOAD SWAP1 DUP2 ADD PUSH1 0x40 MSTORE DUP1 SWAP3 SWAP2 SWAP1 DUP2 DUP2 MSTORE PUSH1 0x20 ADD PUSH0 SWAP1 JUMPDEST DUP3 DUP3 LT ISZERO PUSH2 0x557 JUMPI DUP4 DUP3 SWAP1 PUSH0 MSTORE PUSH1 0x20 PUSH0 KECCAK256 SWAP1 PUSH1 0x5 MUL ADD PUSH1 0x40 MLOAD DUP1 PUSH1 0xA0 ADD PUSH1 0x40 MSTORE SWAP1 DUP2 PUSH0 DUP3 ADD SLOAD DUP2 MSTORE PUSH1 0x20 ADD PUSH1 0x1 DUP3 ADD PUSH0 SWAP1 SLOAD SWAP1 PUSH2 0x100 EXP SWAP1 DIV PUSH20 0xFFFFFFFFFFFFFFFFFFFFFFFFFFFFFFFFFFFFFFFF AND PUSH20 0xFFFFFFFFFFFFFFFFFFFFFFFFFFFFFFFFFFFFFFFF AND PUSH20 0xFFFFFFFFFFFFFFFFFFFFFFFFFFFFFFFFFFFFFFFF AND DUP2 MSTORE PUSH1 0x20 ADD PUSH1 0x2 DUP3 ADD DUP1 SLOAD PUSH2 0x4B4 SWAP1 PUSH2 0x128E JUMP JUMPDEST DUP1 PUSH1 0x1F ADD PUSH1 0x20 DUP1 SWAP2 DIV MUL PUSH1 0x20 ADD PUSH1 0x40 MLOAD SWAP1 DUP2 ADD PUSH1 0x40 MSTORE DUP1 SWAP3 SWAP2 SWAP1 DUP2 DUP2 MSTORE PUSH1 0x20 ADD DUP3 DUP1 SLOAD PUSH2 0x4E0 SWAP1 PUSH2 0x128E JUMP JUMPDEST DUP1 ISZERO PUSH2 0x52B JUMPI DUP1 PUSH1 0x1F LT PUSH2 0x502 JUMPI PUSH2 0x100 DUP1 DUP4 SLOAD DIV MUL DUP4 MSTORE SWAP2 PUSH1 0x20 ADD SWAP2 PUSH2 0x52B JUMP JUMPDEST DUP3 ADD SWAP2 SWAP1 PUSH0 MSTORE PUSH1 0x20 PUSH0 KECCAK256 SWAP1 JUMPDEST DUP2 SLOAD DUP2 MSTORE SWAP1 PUSH1 0x1 ADD SWAP1 PUSH1 0x20 ADD DUP1 DUP4 GT PUSH2 0x50E JUMPI DUP3 SWAP1 SUB PUSH1 0x1F AND DUP3 ADD SWAP2 JUMPDEST POP POP POP POP POP DUP2 MSTORE PUSH1 0x20 ADD PUSH1 0x3 DUP3 ADD SLOAD DUP2 MSTORE PUSH1 0x20 ADD PUSH1 0x4 DUP3 ADD SLOAD DUP2 MSTORE POP POP DUP2 MSTORE PUSH1 0x20 ADD SWAP1 PUSH1 0x1 ADD SWAP1 PUSH2 0x425 JUMP JUMPDEST POP POP POP POP SWAP1 POP SWAP2 SWAP1 POP JUMP JUMPDEST DUP1 PUSH1 0x1 PUSH0 DUP5 PUSH20 0xFFFFFFFFFFFFFFFFFFFFFFFFFFFFFFFFFFFFFFFF AND PUSH20 0xFFFFFFFFFFFFFFFFFFFFFFFFFFFFFFFFFFFFFFFF AND DUP2 MSTORE PUSH1 0x20 ADD SWAP1 DUP2 MSTORE PUSH1 0x20 ADD PUSH0 KECCAK256 DUP3 DUP2 SLOAD DUP2 LT PUSH2 0x5B2 JUMPI PUSH2 0x5B1 PUSH2 0x12BE JUMP JUMPDEST JUMPDEST SWAP1 PUSH0 MSTORE PUSH1 0x20 PUSH0 KECCAK256 SWAP1 PUSH1 0x5 MUL ADD PUSH0 ADD SLOAD EQ PUSH2 0x601 JUMPI PUSH1 0x40 MLOAD PUSH32 0x8C379A000000000000000000000000000000000000000000000000000000000 DUP2 MSTORE PUSH1 0x4 ADD PUSH2 0x5F8 SWAP1 PUSH2 0x1335 JUMP JUMPDEST PUSH1 0x40 MLOAD DUP1 SWAP2 SUB SWAP1 REVERT JUMPDEST PUSH0 PUSH1 0x1 PUSH0 DUP5 PUSH20 0xFFFFFFFFFFFFFFFFFFFFFFFFFFFFFFFFFFFFFFFF AND PUSH20 0xFFFFFFFFFFFFFFFFFFFFFFFFFFFFFFFFFFFFFFFF AND DUP2 MSTORE PUSH1 0x20 ADD SWAP1 DUP2 MSTORE PUSH1 0x20 ADD PUSH0 KECCAK256 DUP3 DUP2 SLOAD DUP2 LT PUSH2 0x651 JUMPI PUSH2 0x650 PUSH2 0x12BE JUMP JUMPDEST JUMPDEST SWAP1 PUSH0 MSTORE PUSH1 0x20 PUSH0 KECCAK256 SWAP1 PUSH1 0x5 MUL ADD PUSH1 0x4 ADD SLOAD GT PUSH2 0x6A1 JUMPI PUSH1 0x40 MLOAD PUSH32 0x8C379A000000000000000000000000000000000000000000000000000000000 DUP2 MSTORE PUSH1 0x4 ADD PUSH2 0x698 SWAP1 PUSH2 0x139D JUMP JUMPDEST PUSH1 0x40 MLOAD DUP1 SWAP2 SUB SWAP1 REVERT JUMPDEST PUSH1 0x1 PUSH0 DUP4 PUSH20 0xFFFFFFFFFFFFFFFFFFFFFFFFFFFFFFFFFFFFFFFF AND PUSH20 0xFFFFFFFFFFFFFFFFFFFFFFFFFFFFFFFFFFFFFFFF AND DUP2 MSTORE PUSH1 0x20 ADD SWAP1 DUP2 MSTORE PUSH1 0x20 ADD PUSH0 KECCAK256 DUP2 DUP2 SLOAD DUP2 LT PUSH2 0x6F0 JUMPI PUSH2 0x6EF PUSH2 0x12BE JUMP JUMPDEST JUMPDEST SWAP1 PUSH0 MSTORE PUSH1 0x20 PUSH0 KECCAK256 SWAP1 PUSH1 0x5 MUL ADD PUSH1 0x4 ADD PUSH0 DUP2 SLOAD DUP1 SWAP3 SWAP2 SWAP1 PUSH2 0x70F SWAP1 PUSH2 0x13E8 JUMP JUMPDEST SWAP2 SWAP1 POP SSTORE POP PUSH32 0x38794FAE74AAC17D1246D8D426A36B9D3B2E5B68CE41EE28977000B2FFC6596A CALLER DUP4 DUP4 PUSH1 0x1 PUSH0 DUP8 PUSH20 0xFFFFFFFFFFFFFFFFFFFFFFFFFFFFFFFFFFFFFFFF AND PUSH20 0xFFFFFFFFFFFFFFFFFFFFFFFFFFFFFFFFFFFFFFFF AND DUP2 MSTORE PUSH1 0x20 ADD SWAP1 DUP2 MSTORE PUSH1 0x20 ADD PUSH0 KECCAK256 DUP6 DUP2 SLOAD DUP2 LT PUSH2 0x787 JUMPI PUSH2 0x786 PUSH2 0x12BE JUMP JUMPDEST JUMPDEST SWAP1 PUSH0 MSTORE PUSH1 0x20 PUSH0 KECCAK256 SWAP1 PUSH1 0x5 MUL ADD PUSH1 0x4 ADD SLOAD PUSH1 0x40 MLOAD PUSH2 0x7A7 SWAP5 SWAP4 SWAP3 SWAP2 SWAP1 PUSH2 0x140F JUMP JUMPDEST PUSH1 0x40 MLOAD DUP1 SWAP2 SUB SWAP1 LOG1 POP POP JUMP JUMPDEST PUSH0 PUSH1 0x2 SWAP1 SLOAD SWAP1 PUSH2 0x100 EXP SWAP1 DIV PUSH20 0xFFFFFFFFFFFFFFFFFFFFFFFFFFFFFFFFFFFFFFFF AND PUSH20 0xFFFFFFFFFFFFFFFFFFFFFFFFFFFFFFFFFFFFFFFF AND CALLER PUSH20 0xFFFFFFFFFFFFFFFFFFFFFFFFFFFFFFFFFFFFFFFF AND EQ PUSH2 0x842 JUMPI PUSH1 0x40 MLOAD PUSH32 0x8C379A000000000000000000000000000000000000000000000000000000000 DUP2 MSTORE PUSH1 0x4 ADD PUSH2 0x839 SWAP1 PUSH2 0x149C JUMP JUMPDEST PUSH1 0x40 MLOAD DUP1 SWAP2 SUB SWAP1 REVERT JUMPDEST DUP1 PUSH0 DUP1 PUSH2 0x100 EXP DUP2 SLOAD DUP2 PUSH2 0xFFFF MUL NOT AND SWAP1 DUP4 PUSH2 0xFFFF AND MUL OR SWAP1 SSTORE POP POP JUMP JUMPDEST DUP1 PUSH1 0x1 PUSH0 DUP5 PUSH20 0xFFFFFFFFFFFFFFFFFFFFFFFFFFFFFFFFFFFFFFFF AND PUSH20 0xFFFFFFFFFFFFFFFFFFFFFFFFFFFFFFFFFFFFFFFF AND DUP2 MSTORE PUSH1 0x20 ADD SWAP1 DUP2 MSTORE PUSH1 0x20 ADD PUSH0 KECCAK256 DUP3 DUP2 SLOAD DUP2 LT PUSH2 0x8B0 JUMPI PUSH2 0x8AF PUSH2 0x12BE JUMP JUMPDEST JUMPDEST SWAP1 PUSH0 MSTORE PUSH1 0x20 PUSH0 KECCAK256 SWAP1 PUSH1 0x5 MUL ADD PUSH0 ADD SLOAD EQ PUSH2 0x8FF JUMPI PUSH1 0x40 MLOAD PUSH32 0x8C379A000000000000000000000000000000000000000000000000000000000 DUP2 MSTORE PUSH1 0x4 ADD PUSH2 0x8F6 SWAP1 PUSH2 0x1335 JUMP JUMPDEST PUSH1 0x40 MLOAD DUP1 SWAP2 SUB SWAP1 REVERT JUMPDEST PUSH0 PUSH1 0x1 PUSH0 DUP5 PUSH20 0xFFFFFFFFFFFFFFFFFFFFFFFFFFFFFFFFFFFFFFFF AND PUSH20 0xFFFFFFFFFFFFFFFFFFFFFFFFFFFFFFFFFFFFFFFF AND DUP2 MSTORE PUSH1 0x20 ADD SWAP1 DUP2 MSTORE PUSH1 0x20 ADD PUSH0 KECCAK256 DUP3 DUP2 SLOAD DUP2 LT PUSH2 0x94F JUMPI PUSH2 0x94E PUSH2 0x12BE JUMP JUMPDEST JUMPDEST SWAP1 PUSH0 MSTORE PUSH1 0x20 PUSH0 KECCAK256 SWAP1 PUSH1 0x5 MUL ADD SWAP1 POP DUP1 PUSH1 0x4 ADD PUSH0 DUP2 SLOAD DUP1 SWAP3 SWAP2 SWAP1 PUSH2 0x971 SWAP1 PUSH2 0x14BA JUMP JUMPDEST SWAP2 SWAP1 POP SSTORE POP PUSH32 0x6BB58C4CDA72B63B915F36A412D451961564FC80DD8AB6187D7C463F673E0BDB CALLER DUP3 PUSH1 0x1 ADD PUSH0 SWAP1 SLOAD SWAP1 PUSH2 0x100 EXP SWAP1 DIV PUSH20 0xFFFFFFFFFFFFFFFFFFFFFFFFFFFFFFFFFFFFFFFF AND DUP4 PUSH0 ADD SLOAD DUP5 PUSH1 0x4 ADD SLOAD PUSH1 0x40 MLOAD PUSH2 0x9D5 SWAP5 SWAP4 SWAP3 SWAP2 SWAP1 PUSH2 0x140F JUMP JUMPDEST PUSH1 0x40 MLOAD DUP1 SWAP2 SUB SWAP1 LOG1 POP POP POP JUMP JUMPDEST PUSH0 DUP1 SLOAD SWAP1 PUSH2 0x100 EXP SWAP1 DIV PUSH2 0xFFFF AND PUSH2 0xFFFF AND DUP2 MLOAD GT ISZERO PUSH2 0xA37 JUMPI PUSH1 0x40 MLOAD PUSH32 0x8C379A000000000000000000000000000000000000000000000000000000000 DUP2 MSTORE PUSH1 0x4 ADD PUSH2 0xA2E SWAP1 PUSH2 0x1571 JUMP JUMPDEST PUSH1 0x40 MLOAD DUP1 SWAP2 SUB SWAP1 REVERT JUMPDEST PUSH0 PUSH1 0x1 PUSH0 CALLER PUSH20 0xFFFFFFFFFFFFFFFFFFFFFFFFFFFFFFFFFFFFFFFF AND PUSH20 0xFFFFFFFFFFFFFFFFFFFFFFFFFFFFFFFFFFFFFFFF AND DUP2 MSTORE PUSH1 0x20 ADD SWAP1 DUP2 MSTORE PUSH1 0x20 ADD PUSH0 KECCAK256 DUP1 SLOAD SWAP1 POP SWAP1 POP PUSH0 PUSH1 0x40 MLOAD DUP1 PUSH1 0xA0 ADD PUSH1 0x40 MSTORE DUP1 DUP4 DUP2 MSTORE PUSH1 0x20 ADD CALLER PUSH20 0xFFFFFFFFFFFFFFFFFFFFFFFFFFFFFFFFFFFFFFFF AND DUP2 MSTORE PUSH1 0x20 ADD DUP5 DUP2 MSTORE PUSH1 0x20 ADD TIMESTAMP DUP2 MSTORE PUSH1 0x20 ADD PUSH0 DUP2 MSTORE POP SWAP1 POP PUSH1 0x1 PUSH0 CALLER PUSH20 0xFFFFFFFFFFFFFFFFFFFFFFFFFFFFFFFFFFFFFFFF AND PUSH20 0xFFFFFFFFFFFFFFFFFFFFFFFFFFFFFFFFFFFFFFFF AND DUP2 MSTORE PUSH1 0x20 ADD SWAP1 DUP2 MSTORE PUSH1 0x20 ADD PUSH0 KECCAK256 DUP2 SWAP1 DUP1 PUSH1 0x1 DUP2 SLOAD ADD DUP1 DUP3 SSTORE DUP1 SWAP2 POP POP PUSH1 0x1 SWAP1 SUB SWAP1 PUSH0 MSTORE PUSH1 0x20 PUSH0 KECCAK256 SWAP1 PUSH1 0x5 MUL ADD PUSH0 SWAP1 SWAP2 SWAP1 SWAP2 SWAP1 SWAP2 POP PUSH0 DUP3 ADD MLOAD DUP2 PUSH0 ADD SSTORE PUSH1 0x20 DUP3 ADD MLOAD DUP2 PUSH1 0x1 ADD PUSH0 PUSH2 0x100 EXP DUP2 SLOAD DUP2 PUSH20 0xFFFFFFFFFFFFFFFFFFFFFFFFFFFFFFFFFFFFFFFF MUL NOT AND SWAP1 DUP4 PUSH20 0xFFFFFFFFFFFFFFFFFFFFFFFFFFFFFFFFFFFFFFFF AND MUL OR SWAP1 SSTORE POP PUSH1 0x40 DUP3 ADD MLOAD DUP2 PUSH1 0x2 ADD SWAP1 DUP2 PUSH2 0xB82 SWAP2 SWAP1 PUSH2 0x172C JUMP JUMPDEST POP PUSH1 0x60 DUP3 ADD MLOAD DUP2 PUSH1 0x3 ADD SSTORE PUSH1 0x80 DUP3 ADD MLOAD DUP2 PUSH1 0x4 ADD SSTORE POP POP PUSH32 0x2AE0C5663F567A278F6EC3216CCD21D319B445E1CAE20A27121CD5DE83AEA27C CALLER DUP4 DUP6 TIMESTAMP PUSH1 0x40 MLOAD PUSH2 0xBCE SWAP5 SWAP4 SWAP3 SWAP2 SWAP1 PUSH2 0x17FB JUMP JUMPDEST PUSH1 0x40 MLOAD DUP1 SWAP2 SUB SWAP1 LOG1 POP POP POP JUMP JUMPDEST PUSH0 PUSH1 0x2 SWAP1 SLOAD SWAP1 PUSH2 0x100 EXP SWAP1 DIV PUSH20 0xFFFFFFFFFFFFFFFFFFFFFFFFFFFFFFFFFFFFFFFF AND DUP2 JUMP JUMPDEST PUSH0 DUP1 PUSH0 SWAP1 POP PUSH0 PUSH1 0x1 PUSH0 DUP7 PUSH20 0xFFFFFFFFFFFFFFFFFFFFFFFFFFFFFFFFFFFFFFFF AND PUSH20 0xFFFFFFFFFFFFFFFFFFFFFFFFFFFFFFFFFFFFFFFF AND DUP2 MSTORE PUSH1 0x20 ADD SWAP1 DUP2 MSTORE PUSH1 0x20 ADD PUSH0 KECCAK256 DUP5 DUP2 SLOAD DUP2 LT PUSH2 0xC55 JUMPI PUSH2 0xC54 PUSH2 0x12BE JUMP JUMPDEST JUMPDEST SWAP1 PUSH0 MSTORE PUSH1 0x20 PUSH0 KECCAK256 SWAP1 PUSH1 0x5 MUL ADD SWAP1 POP PUSH0 JUMPDEST DUP2 PUSH1 0x4 ADD SLOAD DUP2 LT ISZERO PUSH2 0xC8D JUMPI PUSH1 0x1 DUP4 PUSH2 0xC7E SWAP2 SWAP1 PUSH2 0x1845 JUMP JUMPDEST SWAP3 POP DUP1 DUP1 PUSH1 0x1 ADD SWAP2 POP POP PUSH2 0xC65 JUMP JUMPDEST POP DUP2 SWAP3 POP POP POP SWAP3 SWAP2 POP POP JUMP JUMPDEST PUSH0 PUSH1 0x40 MLOAD SWAP1 POP SWAP1 JUMP JUMPDEST PUSH0 DUP1 REVERT JUMPDEST PUSH0 DUP1 REVERT JUMPDEST PUSH0 PUSH20 0xFFFFFFFFFFFFFFFFFFFFFFFFFFFFFFFFFFFFFFFF DUP3 AND SWAP1 POP SWAP2 SWAP1 POP JUMP JUMPDEST PUSH0 PUSH2 0xCD3 DUP3 PUSH2 0xCAA JUMP JUMPDEST SWAP1 POP SWAP2 SWAP1 POP JUMP JUMPDEST PUSH2 0xCE3 DUP2 PUSH2 0xCC9 JUMP JUMPDEST DUP2 EQ PUSH2 0xCED JUMPI PUSH0 DUP1 REVERT JUMPDEST POP JUMP JUMPDEST PUSH0 DUP2 CALLDATALOAD SWAP1 POP PUSH2 0xCFE DUP2 PUSH2 0xCDA JUMP JUMPDEST SWAP3 SWAP2 POP POP JUMP JUMPDEST PUSH0 DUP2 SWAP1 POP SWAP2 SWAP1 POP JUMP JUMPDEST PUSH2 0xD16 DUP2 PUSH2 0xD04 JUMP JUMPDEST DUP2 EQ PUSH2 0xD20 JUMPI PUSH0 DUP1 REVERT JUMPDEST POP JUMP JUMPDEST PUSH0 DUP2 CALLDATALOAD SWAP1 POP PUSH2 0xD31 DUP2 PUSH2 0xD0D JUMP JUMPDEST SWAP3 SWAP2 POP POP JUMP JUMPDEST PUSH0 DUP1 PUSH1 0x40 DUP4 DUP6 SUB SLT ISZERO PUSH2 0xD4D JUMPI PUSH2 0xD4C PUSH2 0xCA2 JUMP JUMPDEST JUMPDEST PUSH0 PUSH2 0xD5A DUP6 DUP3 DUP7 ADD PUSH2 0xCF0 JUMP JUMPDEST SWAP3 POP POP PUSH1 0x20 PUSH2 0xD6B DUP6 DUP3 DUP7 ADD PUSH2 0xD23 JUMP JUMPDEST SWAP2 POP POP SWAP3 POP SWAP3 SWAP1 POP JUMP JUMPDEST PUSH2 0xD7E DUP2 PUSH2 0xD04 JUMP JUMPDEST DUP3 MSTORE POP POP JUMP JUMPDEST PUSH2 0xD8D DUP2 PUSH2 0xCC9 JUMP JUMPDEST DUP3 MSTORE POP POP JUMP JUMPDEST PUSH0 DUP2 MLOAD SWAP1 POP SWAP2 SWAP1 POP JUMP JUMPDEST PUSH0 DUP3 DUP3 MSTORE PUSH1 0x20 DUP3 ADD SWAP1 POP SWAP3 SWAP2 POP POP JUMP JUMPDEST DUP3 DUP2 DUP4 MCOPY PUSH0 DUP4 DUP4 ADD MSTORE POP POP POP JUMP JUMPDEST PUSH0 PUSH1 0x1F NOT PUSH1 0x1F DUP4 ADD AND SWAP1 POP SWAP2 SWAP1 POP JUMP JUMPDEST PUSH0 PUSH2 0xDD5 DUP3 PUSH2 0xD93 JUMP JUMPDEST PUSH2 0xDDF DUP2 DUP6 PUSH2 0xD9D JUMP JUMPDEST SWAP4 POP PUSH2 0xDEF DUP2 DUP6 PUSH1 0x20 DUP7 ADD PUSH2 0xDAD JUMP JUMPDEST PUSH2 0xDF8 DUP2 PUSH2 0xDBB JUMP JUMPDEST DUP5 ADD SWAP2 POP POP SWAP3 SWAP2 POP POP JUMP JUMPDEST PUSH0 PUSH1 0xA0 DUP3 ADD SWAP1 POP PUSH2 0xE16 PUSH0 DUP4 ADD DUP9 PUSH2 0xD75 JUMP JUMPDEST PUSH2 0xE23 PUSH1 0x20 DUP4 ADD DUP8 PUSH2 0xD84 JUMP JUMPDEST DUP2 DUP2 SUB PUSH1 0x40 DUP4 ADD MSTORE PUSH2 0xE35 DUP2 DUP7 PUSH2 0xDCB JUMP JUMPDEST SWAP1 POP PUSH2 0xE44 PUSH1 0x60 DUP4 ADD DUP6 PUSH2 0xD75 JUMP JUMPDEST PUSH2 0xE51 PUSH1 0x80 DUP4 ADD DUP5 PUSH2 0xD75 JUMP JUMPDEST SWAP7 SWAP6 POP POP POP POP POP POP JUMP JUMPDEST PUSH0 PUSH1 0x20 DUP3 ADD SWAP1 POP DUP2 DUP2 SUB PUSH0 DUP4 ADD MSTORE PUSH2 0xE73 DUP2 DUP5 PUSH2 0xDCB JUMP JUMPDEST SWAP1 POP SWAP3 SWAP2 POP POP JUMP JUMPDEST PUSH0 PUSH1 0x20 DUP3 DUP5 SUB SLT ISZERO PUSH2 0xE90 JUMPI PUSH2 0xE8F PUSH2 0xCA2 JUMP JUMPDEST JUMPDEST PUSH0 PUSH2 0xE9D DUP5 DUP3 DUP6 ADD PUSH2 0xCF0 JUMP JUMPDEST SWAP2 POP POP SWAP3 SWAP2 POP POP JUMP JUMPDEST PUSH0 DUP2 MLOAD SWAP1 POP SWAP2 SWAP1 POP JUMP JUMPDEST PUSH0 DUP3 DUP3 MSTORE PUSH1 0x20 DUP3 ADD SWAP1 POP SWAP3 SWAP2 POP POP JUMP JUMPDEST PUSH0 DUP2 SWAP1 POP PUSH1 0x20 DUP3 ADD SWAP1 POP SWAP2 SWAP1 POP JUMP JUMPDEST PUSH2 0xED8 DUP2 PUSH2 0xD04 JUMP JUMPDEST DUP3 MSTORE POP POP JUMP JUMPDEST PUSH2 0xEE7 DUP2 PUSH2 0xCC9 JUMP JUMPDEST DUP3 MSTORE POP POP JUMP JUMPDEST PUSH0 DUP3 DUP3 MSTORE PUSH1 0x20 DUP3 ADD SWAP1 POP SWAP3 SWAP2 POP POP JUMP JUMPDEST PUSH0 PUSH2 0xF07 DUP3 PUSH2 0xD93 JUMP JUMPDEST PUSH2 0xF11 DUP2 DUP6 PUSH2 0xEED JUMP JUMPDEST SWAP4 POP PUSH2 0xF21 DUP2 DUP6 PUSH1 0x20 DUP7 ADD PUSH2 0xDAD JUMP JUMPDEST PUSH2 0xF2A DUP2 PUSH2 0xDBB JUMP JUMPDEST DUP5 ADD SWAP2 POP POP SWAP3 SWAP2 POP POP JUMP JUMPDEST PUSH0 PUSH1 0xA0 DUP4 ADD PUSH0 DUP4 ADD MLOAD PUSH2 0xF4A PUSH0 DUP7 ADD DUP3 PUSH2 0xECF JUMP JUMPDEST POP PUSH1 0x20 DUP4 ADD MLOAD PUSH2 0xF5D PUSH1 0x20 DUP7 ADD DUP3 PUSH2 0xEDE JUMP JUMPDEST POP PUSH1 0x40 DUP4 ADD MLOAD DUP5 DUP3 SUB PUSH1 0x40 DUP7 ADD MSTORE PUSH2 0xF75 DUP3 DUP3 PUSH2 0xEFD JUMP JUMPDEST SWAP2 POP POP PUSH1 0x60 DUP4 ADD MLOAD PUSH2 0xF8A PUSH1 0x60 DUP7 ADD DUP3 PUSH2 0xECF JUMP JUMPDEST POP PUSH1 0x80 DUP4 ADD MLOAD PUSH2 0xF9D PUSH1 0x80 DUP7 ADD DUP3 PUSH2 0xECF JUMP JUMPDEST POP DUP1 SWAP2 POP POP SWAP3 SWAP2 POP POP JUMP JUMPDEST PUSH0 PUSH2 0xFB3 DUP4 DUP4 PUSH2 0xF35 JUMP JUMPDEST SWAP1 POP SWAP3 SWAP2 POP POP JUMP JUMPDEST PUSH0 PUSH1 0x20 DUP3 ADD SWAP1 POP SWAP2 SWAP1 POP JUMP JUMPDEST PUSH0 PUSH2 0xFD1 DUP3 PUSH2 0xEA6 JUMP JUMPDEST PUSH2 0xFDB DUP2 DUP6 PUSH2 0xEB0 JUMP JUMPDEST SWAP4 POP DUP4 PUSH1 0x20 DUP3 MUL DUP6 ADD PUSH2 0xFED DUP6 PUSH2 0xEC0 JUMP JUMPDEST DUP1 PUSH0 JUMPDEST DUP6 DUP2 LT ISZERO PUSH2 0x1028 JUMPI DUP5 DUP5 SUB DUP10 MSTORE DUP2 MLOAD PUSH2 0x1009 DUP6 DUP3 PUSH2 0xFA8 JUMP JUMPDEST SWAP5 POP PUSH2 0x1014 DUP4 PUSH2 0xFBB JUMP JUMPDEST SWAP3 POP PUSH1 0x20 DUP11 ADD SWAP10 POP POP PUSH1 0x1 DUP2 ADD SWAP1 POP PUSH2 0xFF0 JUMP JUMPDEST POP DUP3 SWAP8 POP DUP8 SWAP6 POP POP POP POP POP POP SWAP3 SWAP2 POP POP JUMP JUMPDEST PUSH0 PUSH1 0x20 DUP3 ADD SWAP1 POP DUP2 DUP2 SUB PUSH0 DUP4 ADD MSTORE PUSH2 0x1052 DUP2 DUP5 PUSH2 0xFC7 JUMP JUMPDEST SWAP1 POP SWAP3 SWAP2 POP POP JUMP JUMPDEST PUSH0 PUSH2 0xFFFF DUP3 AND SWAP1 POP SWAP2 SWAP1 POP JUMP JUMPDEST PUSH2 0x1070 DUP2 PUSH2 0x105A JUMP JUMPDEST DUP2 EQ PUSH2 0x107A JUMPI PUSH0 DUP1 REVERT JUMPDEST POP JUMP JUMPDEST PUSH0 DUP2 CALLDATALOAD SWAP1 POP PUSH2 0x108B DUP2 PUSH2 0x1067 JUMP JUMPDEST SWAP3 SWAP2 POP POP JUMP JUMPDEST PUSH0 PUSH1 0x20 DUP3 DUP5 SUB SLT ISZERO PUSH2 0x10A6 JUMPI PUSH2 0x10A5 PUSH2 0xCA2 JUMP JUMPDEST JUMPDEST PUSH0 PUSH2 0x10B3 DUP5 DUP3 DUP6 ADD PUSH2 0x107D JUMP JUMPDEST SWAP2 POP POP SWAP3 SWAP2 POP POP JUMP JUMPDEST PUSH0 DUP1 REVERT JUMPDEST PUSH0 DUP1 REVERT JUMPDEST PUSH32 0x4E487B7100000000000000000000000000000000000000000000000000000000 PUSH0 MSTORE PUSH1 0x41 PUSH1 0x4 MSTORE PUSH1 0x24 PUSH0 REVERT JUMPDEST PUSH2 0x10FA DUP3 PUSH2 0xDBB JUMP JUMPDEST DUP2 ADD DUP2 DUP2 LT PUSH8 0xFFFFFFFFFFFFFFFF DUP3 GT OR ISZERO PUSH2 0x1119 JUMPI PUSH2 0x1118 PUSH2 0x10C4 JUMP JUMPDEST JUMPDEST DUP1 PUSH1 0x40 MSTORE POP POP POP JUMP JUMPDEST PUSH0 PUSH2 0x112B PUSH2 0xC99 JUMP JUMPDEST SWAP1 POP PUSH2 0x1137 DUP3 DUP3 PUSH2 0x10F1 JUMP JUMPDEST SWAP2 SWAP1 POP JUMP JUMPDEST PUSH0 PUSH8 0xFFFFFFFFFFFFFFFF DUP3 GT ISZERO PUSH2 0x1156 JUMPI PUSH2 0x1155 PUSH2 0x10C4 JUMP JUMPDEST JUMPDEST PUSH2 0x115F DUP3 PUSH2 0xDBB JUMP JUMPDEST SWAP1 POP PUSH1 0x20 DUP2 ADD SWAP1 POP SWAP2 SWAP1 POP JUMP JUMPDEST DUP3 DUP2 DUP4 CALLDATACOPY PUSH0 DUP4 DUP4 ADD MSTORE POP POP POP JUMP JUMPDEST PUSH0 PUSH2 0x118C PUSH2 0x1187 DUP5 PUSH2 0x113C JUMP JUMPDEST PUSH2 0x1122 JUMP JUMPDEST SWAP1 POP DUP3 DUP2 MSTORE PUSH1 0x20 DUP2 ADD DUP5 DUP5 DUP5 ADD GT ISZERO PUSH2 0x11A8 JUMPI PUSH2 0x11A7 PUSH2 0x10C0 JUMP JUMPDEST JUMPDEST PUSH2 0x11B3 DUP5 DUP3 DUP6 PUSH2 0x116C JUMP JUMPDEST POP SWAP4 SWAP3 POP POP POP JUMP JUMPDEST PUSH0 DUP3 PUSH1 0x1F DUP4 ADD SLT PUSH2 0x11CF JUMPI PUSH2 0x11CE PUSH2 0x10BC JUMP JUMPDEST JUMPDEST DUP2 CALLDATALOAD PUSH2 0x11DF DUP5 DUP3 PUSH1 0x20 DUP7 ADD PUSH2 0x117A JUMP JUMPDEST SWAP2 POP POP SWAP3 SWAP2 POP POP JUMP JUMPDEST PUSH0 PUSH1 0x20 DUP3 DUP5 SUB SLT ISZERO PUSH2 0x11FD JUMPI PUSH2 0x11FC PUSH2 0xCA2 JUMP JUMPDEST JUMPDEST PUSH0 DUP3 ADD CALLDATALOAD PUSH8 0xFFFFFFFFFFFFFFFF DUP2 GT ISZERO PUSH2 0x121A JUMPI PUSH2 0x1219 PUSH2 0xCA6 JUMP JUMPDEST JUMPDEST PUSH2 0x1226 DUP5 DUP3 DUP6 ADD PUSH2 0x11BB JUMP JUMPDEST SWAP2 POP POP SWAP3 SWAP2 POP POP JUMP JUMPDEST PUSH0 PUSH1 0x20 DUP3 ADD SWAP1 POP PUSH2 0x1242 PUSH0 DUP4 ADD DUP5 PUSH2 0xD84 JUMP JUMPDEST SWAP3 SWAP2 POP POP JUMP JUMPDEST PUSH0 PUSH1 0x20 DUP3 ADD SWAP1 POP PUSH2 0x125B PUSH0 DUP4 ADD DUP5 PUSH2 0xD75 JUMP JUMPDEST SWAP3 SWAP2 POP POP JUMP JUMPDEST PUSH32 0x4E487B7100000000000000000000000000000000000000000000000000000000 PUSH0 MSTORE PUSH1 0x22 PUSH1 0x4 MSTORE PUSH1 0x24 PUSH0 REVERT JUMPDEST PUSH0 PUSH1 0x2 DUP3 DIV SWAP1 POP PUSH1 0x1 DUP3 AND DUP1 PUSH2 0x12A5 JUMPI PUSH1 0x7F DUP3 AND SWAP2 POP JUMPDEST PUSH1 0x20 DUP3 LT DUP2 SUB PUSH2 0x12B8 JUMPI PUSH2 0x12B7 PUSH2 0x1261 JUMP JUMPDEST JUMPDEST POP SWAP2 SWAP1 POP JUMP JUMPDEST PUSH32 0x4E487B7100000000000000000000000000000000000000000000000000000000 PUSH0 MSTORE PUSH1 0x32 PUSH1 0x4 MSTORE PUSH1 0x24 PUSH0 REVERT JUMPDEST PUSH32 0x545745455420444F4553204E4F54204558495354000000000000000000000000 PUSH0 DUP3 ADD MSTORE POP JUMP JUMPDEST PUSH0 PUSH2 0x131F PUSH1 0x14 DUP4 PUSH2 0xD9D JUMP JUMPDEST SWAP2 POP PUSH2 0x132A DUP3 PUSH2 0x12EB JUMP JUMPDEST PUSH1 0x20 DUP3 ADD SWAP1 POP SWAP2 SWAP1 POP JUMP JUMPDEST PUSH0 PUSH1 0x20 DUP3 ADD SWAP1 POP DUP2 DUP2 SUB PUSH0 DUP4 ADD MSTORE PUSH2 0x134C DUP2 PUSH2 0x1313 JUMP JUMPDEST SWAP1 POP SWAP2 SWAP1 POP JUMP JUMPDEST PUSH32 0x547765657420686173206E6F206C696B65000000000000000000000000000000 PUSH0 DUP3 ADD MSTORE POP JUMP JUMPDEST PUSH0 PUSH2 0x1387 PUSH1 0x11 DUP4 PUSH2 0xD9D JUMP JUMPDEST SWAP2 POP PUSH2 0x1392 DUP3 PUSH2 0x1353 JUMP JUMPDEST PUSH1 0x20 DUP3 ADD SWAP1 POP SWAP2 SWAP1 POP JUMP JUMPDEST PUSH0 PUSH1 0x20 DUP3 ADD SWAP1 POP DUP2 DUP2 SUB PUSH0 DUP4 ADD MSTORE PUSH2 0x13B4 DUP2 PUSH2 0x137B JUMP JUMPDEST SWAP1 POP SWAP2 SWAP1 POP JUMP JUMPDEST PUSH32 0x4E487B7100000000000000000000000000000000000000000000000000000000 PUSH0 MSTORE PUSH1 0x11 PUSH1 0x4 MSTORE PUSH1 0x24 PUSH0 REVERT JUMPDEST PUSH0 PUSH2 0x13F2 DUP3 PUSH2 0xD04 JUMP JUMPDEST SWAP2 POP PUSH0 DUP3 SUB PUSH2 0x1404 JUMPI PUSH2 0x1403 PUSH2 0x13BB JUMP JUMPDEST JUMPDEST PUSH1 0x1 DUP3 SUB SWAP1 POP SWAP2 SWAP1 POP JUMP JUMPDEST PUSH0 PUSH1 0x80 DUP3 ADD SWAP1 POP PUSH2 0x1422 PUSH0 DUP4 ADD DUP8 PUSH2 0xD84 JUMP JUMPDEST PUSH2 0x142F PUSH1 0x20 DUP4 ADD DUP7 PUSH2 0xD84 JUMP JUMPDEST PUSH2 0x143C PUSH1 0x40 DUP4 ADD DUP6 PUSH2 0xD75 JUMP JUMPDEST PUSH2 0x1449 PUSH1 0x60 DUP4 ADD DUP5 PUSH2 0xD75 JUMP JUMPDEST SWAP6 SWAP5 POP POP POP POP POP JUMP JUMPDEST PUSH32 0x596F75277265206E6F7420746865206F776E6572000000000000000000000000 PUSH0 DUP3 ADD MSTORE POP JUMP JUMPDEST PUSH0 PUSH2 0x1486 PUSH1 0x14 DUP4 PUSH2 0xD9D JUMP JUMPDEST SWAP2 POP PUSH2 0x1491 DUP3 PUSH2 0x1452 JUMP JUMPDEST PUSH1 0x20 DUP3 ADD SWAP1 POP SWAP2 SWAP1 POP JUMP JUMPDEST PUSH0 PUSH1 0x20 DUP3 ADD SWAP1 POP DUP2 DUP2 SUB PUSH0 DUP4 ADD MSTORE PUSH2 0x14B3 DUP2 PUSH2 0x147A JUMP JUMPDEST SWAP1 POP SWAP2 SWAP1 POP JUMP JUMPDEST PUSH0 PUSH2 0x14C4 DUP3 PUSH2 0xD04 JUMP JUMPDEST SWAP2 POP PUSH32 0xFFFFFFFFFFFFFFFFFFFFFFFFFFFFFFFFFFFFFFFFFFFFFFFFFFFFFFFFFFFFFFFF DUP3 SUB PUSH2 0x14F6 JUMPI PUSH2 0x14F5 PUSH2 0x13BB JUMP JUMPDEST JUMPDEST PUSH1 0x1 DUP3 ADD SWAP1 POP SWAP2 SWAP1 POP JUMP JUMPDEST PUSH32 0x54776565742063616E6E6F74206265206C6F6E676572207468616E2024545745 PUSH0 DUP3 ADD MSTORE PUSH32 0x45545F4D41585F4C454E47544800000000000000000000000000000000000000 PUSH1 0x20 DUP3 ADD MSTORE POP JUMP JUMPDEST PUSH0 PUSH2 0x155B PUSH1 0x2D DUP4 PUSH2 0xD9D JUMP JUMPDEST SWAP2 POP PUSH2 0x1566 DUP3 PUSH2 0x1501 JUMP JUMPDEST PUSH1 0x40 DUP3 ADD SWAP1 POP SWAP2 SWAP1 POP JUMP JUMPDEST PUSH0 PUSH1 0x20 DUP3 ADD SWAP1 POP DUP2 DUP2 SUB PUSH0 DUP4 ADD MSTORE PUSH2 0x1588 DUP2 PUSH2 0x154F JUMP JUMPDEST SWAP1 POP SWAP2 SWAP1 POP JUMP JUMPDEST PUSH0 DUP2 SWAP1 POP DUP2 PUSH0 MSTORE PUSH1 0x20 PUSH0 KECCAK256 SWAP1 POP SWAP2 SWAP1 POP JUMP JUMPDEST PUSH0 PUSH1 0x20 PUSH1 0x1F DUP4 ADD DIV SWAP1 POP SWAP2 SWAP1 POP JUMP JUMPDEST PUSH0 DUP3 DUP3 SHL SWAP1 POP SWAP3 SWAP2 POP POP JUMP JUMPDEST PUSH0 PUSH1 0x8 DUP4 MUL PUSH2 0x15EB PUSH32 0xFFFFFFFFFFFFFFFFFFFFFFFFFFFFFFFFFFFFFFFFFFFFFFFFFFFFFFFFFFFFFFFF DUP3 PUSH2 0x15B0 JUMP JUMPDEST PUSH2 0x15F5 DUP7 DUP4 PUSH2 0x15B0 JUMP JUMPDEST SWAP6 POP DUP1 NOT DUP5 AND SWAP4 POP DUP1 DUP7 AND DUP5 OR SWAP3 POP POP POP SWAP4 SWAP3 POP POP POP JUMP JUMPDEST PUSH0 DUP2 SWAP1 POP SWAP2 SWAP1 POP JUMP JUMPDEST PUSH0 PUSH2 0x1630 PUSH2 0x162B PUSH2 0x1626 DUP5 PUSH2 0xD04 JUMP JUMPDEST PUSH2 0x160D JUMP JUMPDEST PUSH2 0xD04 JUMP JUMPDEST SWAP1 POP SWAP2 SWAP1 POP JUMP JUMPDEST PUSH0 DUP2 SWAP1 POP SWAP2 SWAP1 POP JUMP JUMPDEST PUSH2 0x1649 DUP4 PUSH2 0x1616 JUMP JUMPDEST PUSH2 0x165D PUSH2 0x1655 DUP3 PUSH2 0x1637 JUMP JUMPDEST DUP5 DUP5 SLOAD PUSH2 0x15BC JUMP JUMPDEST DUP3 SSTORE POP POP POP POP JUMP JUMPDEST PUSH0 SWAP1 JUMP JUMPDEST PUSH2 0x1671 PUSH2 0x1665 JUMP JUMPDEST PUSH2 0x167C DUP2 DUP5 DUP5 PUSH2 0x1640 JUMP JUMPDEST POP POP POP JUMP JUMPDEST JUMPDEST DUP2 DUP2 LT ISZERO PUSH2 0x169F JUMPI PUSH2 0x1694 PUSH0 DUP3 PUSH2 0x1669 JUMP JUMPDEST PUSH1 0x1 DUP2 ADD SWAP1 POP PUSH2 0x1682 JUMP JUMPDEST POP POP JUMP JUMPDEST PUSH1 0x1F DUP3 GT ISZERO PUSH2 0x16E4 JUMPI PUSH2 0x16B5 DUP2 PUSH2 0x158F JUMP JUMPDEST PUSH2 0x16BE DUP5 PUSH2 0x15A1 JUMP JUMPDEST DUP2 ADD PUSH1 0x20 DUP6 LT ISZERO PUSH2 0x16CD JUMPI DUP2 SWAP1 POP JUMPDEST PUSH2 0x16E1 PUSH2 0x16D9 DUP6 PUSH2 0x15A1 JUMP JUMPDEST DUP4 ADD DUP3 PUSH2 0x1681 JUMP JUMPDEST POP POP JUMPDEST POP POP POP JUMP JUMPDEST PUSH0 DUP3 DUP3 SHR SWAP1 POP SWAP3 SWAP2 POP POP JUMP JUMPDEST PUSH0 PUSH2 0x1704 PUSH0 NOT DUP5 PUSH1 0x8 MUL PUSH2 0x16E9 JUMP JUMPDEST NOT DUP1 DUP4 AND SWAP2 POP POP SWAP3 SWAP2 POP POP JUMP JUMPDEST PUSH0 PUSH2 0x171C DUP4 DUP4 PUSH2 0x16F5 JUMP JUMPDEST SWAP2 POP DUP3 PUSH1 0x2 MUL DUP3 OR SWAP1 POP SWAP3 SWAP2 POP POP JUMP JUMPDEST PUSH2 0x1735 DUP3 PUSH2 0xD93 JUMP JUMPDEST PUSH8 0xFFFFFFFFFFFFFFFF DUP2 GT ISZERO PUSH2 0x174E JUMPI PUSH2 0x174D PUSH2 0x10C4 JUMP JUMPDEST JUMPDEST PUSH2 0x1758 DUP3 SLOAD PUSH2 0x128E JUMP JUMPDEST PUSH2 0x1763 DUP3 DUP3 DUP6 PUSH2 0x16A3 JUMP JUMPDEST PUSH0 PUSH1 0x20 SWAP1 POP PUSH1 0x1F DUP4 GT PUSH1 0x1 DUP2 EQ PUSH2 0x1794 JUMPI PUSH0 DUP5 ISZERO PUSH2 0x1782 JUMPI DUP3 DUP8 ADD MLOAD SWAP1 POP JUMPDEST PUSH2 0x178C DUP6 DUP3 PUSH2 0x1711 JUMP JUMPDEST DUP7 SSTORE POP PUSH2 0x17F3 JUMP JUMPDEST PUSH1 0x1F NOT DUP5 AND PUSH2 0x17A2 DUP7 PUSH2 0x158F JUMP JUMPDEST PUSH0 JUMPDEST DUP3 DUP2 LT ISZERO PUSH2 0x17C9 JUMPI DUP5 DUP10 ADD MLOAD DUP3 SSTORE PUSH1 0x1 DUP3 ADD SWAP2 POP PUSH1 0x20 DUP6 ADD SWAP5 POP PUSH1 0x20 DUP2 ADD SWAP1 POP PUSH2 0x17A4 JUMP JUMPDEST DUP7 DUP4 LT ISZERO PUSH2 0x17E6 JUMPI DUP5 DUP10 ADD MLOAD PUSH2 0x17E2 PUSH1 0x1F DUP10 AND DUP3 PUSH2 0x16F5 JUMP JUMPDEST DUP4 SSTORE POP JUMPDEST PUSH1 0x1 PUSH1 0x2 DUP9 MUL ADD DUP9 SSTORE POP POP POP JUMPDEST POP POP POP POP POP POP JUMP JUMPDEST PUSH0 PUSH1 0x80 DUP3 ADD SWAP1 POP PUSH2 0x180E PUSH0 DUP4 ADD DUP8 PUSH2 0xD84 JUMP JUMPDEST PUSH2 0x181B PUSH1 0x20 DUP4 ADD DUP7 PUSH2 0xD75 JUMP JUMPDEST DUP2 DUP2 SUB PUSH1 0x40 DUP4 ADD MSTORE PUSH2 0x182D DUP2 DUP6 PUSH2 0xDCB JUMP JUMPDEST SWAP1 POP PUSH2 0x183C PUSH1 0x60 DUP4 ADD DUP5 PUSH2 0xD75 JUMP JUMPDEST SWAP6 SWAP5 POP POP POP POP POP JUMP JUMPDEST PUSH0 PUSH2 0x184F DUP3 PUSH2 0xD04 JUMP JUMPDEST SWAP2 POP PUSH2 0x185A DUP4 PUSH2 0xD04 JUMP JUMPDEST SWAP3 POP DUP3 DUP3 ADD SWAP1 POP DUP1 DUP3 GT ISZERO PUSH2 0x1872 JUMPI PUSH2 0x1871 PUSH2 0x13BB JUMP JUMPDEST JUMPDEST SWAP3 SWAP2 POP POP JUMP INVALID LOG2 PUSH5 0x6970667358 0x22 SLT KECCAK256 SWAP14 0xB9 PUSH27 0xC23B82891095AAD838F41B2094D731D477F51554B32B7FA0099754 DUP13 COINBASE PUSH5 0x736F6C6343 STOP ADDMOD BYTE STOP CALLER "
		},
		"gasEstimates": {
			"creation": {
				"codeDepositCost": "1263600",
				"executionCost": "49894",
				"totalCost": "1313494"
			},
			"external": {
				"createTweet(string)": "infinite",
				"getAllTweets(address)": "infinite",
				"getTotalLikes(address,uint256)": "infinite",
				"getTweet(address,uint256)": "infinite",
				"likeTweet(address,uint256)": "infinite",
				"modifyTweetLength(uint16)": "26892",
				"owner()": "2624",
				"tweets(address,uint256)": "infinite",
				"unlikeTweet(address,uint256)": "infinite"
			}
		},
		"methodIdentifiers": {
			"createTweet(string)": "7c9cd2bc",
			"getAllTweets(address)": "12e7ee1c",
			"getTotalLikes(address,uint256)": "ddbe7afc",
			"getTweet(address,uint256)": "112f54e3",
			"likeTweet(address,uint256)": "63378216",
			"modifyTweetLength(uint16)": "5ed4024d",
			"owner()": "8da5cb5b",
			"tweets(address,uint256)": "05a1b4a9",
			"unlikeTweet(address,uint256)": "3d9b569f"
		}
	},
	"abi": [
		{
			"inputs": [],
			"stateMutability": "nonpayable",
			"type": "constructor"
		},
		{
			"anonymous": false,
			"inputs": [
				{
					"indexed": false,
					"internalType": "address",
					"name": "author",
					"type": "address"
				},
				{
					"indexed": false,
					"internalType": "uint256",
					"name": "id",
					"type": "uint256"
				},
				{
					"indexed": false,
					"internalType": "string",
					"name": "content",
					"type": "string"
				},
				{
					"indexed": false,
					"internalType": "uint256",
					"name": "timestamp",
					"type": "uint256"
				}
			],
			"name": "TweetCreatedEvent",
			"type": "event"
		},
		{
			"anonymous": false,
			"inputs": [
				{
					"indexed": false,
					"internalType": "address",
					"name": "likedBy",
					"type": "address"
				},
				{
					"indexed": false,
					"internalType": "address",
					"name": "owner",
					"type": "address"
				},
				{
					"indexed": false,
					"internalType": "uint256",
					"name": "id",
					"type": "uint256"
				},
				{
					"indexed": false,
					"internalType": "uint256",
					"name": "count",
					"type": "uint256"
				}
			],
			"name": "TweetLikedEvent",
			"type": "event"
		},
		{
			"anonymous": false,
			"inputs": [
				{
					"indexed": false,
					"internalType": "address",
					"name": "unlikedBy",
					"type": "address"
				},
				{
					"indexed": false,
					"internalType": "address",
					"name": "owner",
					"type": "address"
				},
				{
					"indexed": false,
					"internalType": "uint256",
					"name": "id",
					"type": "uint256"
				},
				{
					"indexed": false,
					"internalType": "uint256",
					"name": "newLikeCount",
					"type": "uint256"
				}
			],
			"name": "TweetUnlikedEvent",
			"type": "event"
		},
		{
			"inputs": [
				{
					"internalType": "string",
					"name": "_content",
					"type": "string"
				}
			],
			"name": "createTweet",
			"outputs": [],
			"stateMutability": "nonpayable",
			"type": "function"
		},
		{
			"inputs": [
				{
					"internalType": "address",
					"name": "_owner",
					"type": "address"
				}
			],
			"name": "getAllTweets",
			"outputs": [
				{
					"components": [
						{
							"internalType": "uint256",
							"name": "id",
							"type": "uint256"
						},
						{
							"internalType": "address",
							"name": "author",
							"type": "address"
						},
						{
							"internalType": "string",
							"name": "content",
							"type": "string"
						},
						{
							"internalType": "uint256",
							"name": "timestamp",
							"type": "uint256"
						},
						{
							"internalType": "uint256",
							"name": "likes",
							"type": "uint256"
						}
					],
					"internalType": "struct Twitter.Tweet[]",
					"name": "",
					"type": "tuple[]"
				}
			],
			"stateMutability": "view",
			"type": "function"
		},
		{
			"inputs": [
				{
					"internalType": "address",
					"name": "_owner",
					"type": "address"
				},
				{
					"internalType": "uint256",
					"name": "_id",
					"type": "uint256"
				}
			],
			"name": "getTotalLikes",
			"outputs": [
				{
					"internalType": "uint256",
					"name": "",
					"type": "uint256"
				}
			],
			"stateMutability": "view",
			"type": "function"
		},
		{
			"inputs": [
				{
					"internalType": "address",
					"name": "_owner",
					"type": "address"
				},
				{
					"internalType": "uint256",
					"name": "_i",
					"type": "uint256"
				}
			],
			"name": "getTweet",
			"outputs": [
				{
					"internalType": "string",
					"name": "",
					"type": "string"
				}
			],
			"stateMutability": "view",
			"type": "function"
		},
		{
			"inputs": [
				{
					"internalType": "address",
					"name": "author",
					"type": "address"
				},
				{
					"internalType": "uint256",
					"name": "id",
					"type": "uint256"
				}
			],
			"name": "likeTweet",
			"outputs": [],
			"stateMutability": "nonpayable",
			"type": "function"
		},
		{
			"inputs": [
				{
					"internalType": "uint16",
					"name": "length",
					"type": "uint16"
				}
			],
			"name": "modifyTweetLength",
			"outputs": [],
			"stateMutability": "nonpayable",
			"type": "function"
		},
		{
			"inputs": [],
			"name": "owner",
			"outputs": [
				{
					"internalType": "address",
					"name": "",
					"type": "address"
				}
			],
			"stateMutability": "view",
			"type": "function"
		},
		{
			"inputs": [
				{
					"internalType": "address",
					"name": "",
					"type": "address"
				},
				{
					"internalType": "uint256",
					"name": "",
					"type": "uint256"
				}
			],
			"name": "tweets",
			"outputs": [
				{
					"internalType": "uint256",
					"name": "id",
					"type": "uint256"
				},
				{
					"internalType": "address",
					"name": "author",
					"type": "address"
				},
				{
					"internalType": "string",
					"name": "content",
					"type": "string"
				},
				{
					"internalType": "uint256",
					"name": "timestamp",
					"type": "uint256"
				},
				{
					"internalType": "uint256",
					"name": "likes",
					"type": "uint256"
				}
			],
			"stateMutability": "view",
			"type": "function"
		},
		{
			"inputs": [
				{
					"internalType": "address",
					"name": "author",
					"type": "address"
				},
				{
					"internalType": "uint256",
					"name": "id",
					"type": "uint256"
				}
			],
			"name": "unlikeTweet",
			"outputs": [],
			"stateMutability": "nonpayable",
			"type": "function"
		}
	]
}